{
  "contractName": "ERC20Basic",
  "abi": [
    {
      "inputs": [
        {
          "internalType": "uint256",
          "name": "initialSupply",
          "type": "uint256"
        }
      ],
      "payable": false,
      "stateMutability": "nonpayable",
      "type": "constructor"
    },
    {
      "anonymous": false,
      "inputs": [
        {
          "indexed": true,
          "internalType": "address",
          "name": "owner",
          "type": "address"
        },
        {
          "indexed": true,
          "internalType": "address",
          "name": "spender",
          "type": "address"
        },
        {
          "indexed": false,
          "internalType": "uint256",
          "name": "tokens",
          "type": "uint256"
        }
      ],
      "name": "Approval",
      "type": "event"
    },
    {
      "anonymous": false,
      "inputs": [
        {
          "indexed": true,
          "internalType": "address",
          "name": "from",
          "type": "address"
        },
        {
          "indexed": true,
          "internalType": "address",
          "name": "to",
          "type": "address"
        },
        {
          "indexed": false,
          "internalType": "uint256",
          "name": "tokens",
          "type": "uint256"
        }
      ],
      "name": "Transfer",
      "type": "event"
    },
    {
      "constant": true,
      "inputs": [],
      "name": "decimals",
      "outputs": [
        {
          "internalType": "uint8",
          "name": "",
          "type": "uint8"
        }
      ],
      "payable": false,
      "stateMutability": "view",
      "type": "function"
    },
    {
      "constant": true,
      "inputs": [],
      "name": "name",
      "outputs": [
        {
          "internalType": "string",
          "name": "",
          "type": "string"
        }
      ],
      "payable": false,
      "stateMutability": "view",
      "type": "function"
    },
    {
      "constant": true,
      "inputs": [],
      "name": "symbol",
      "outputs": [
        {
          "internalType": "string",
          "name": "",
          "type": "string"
        }
      ],
      "payable": false,
      "stateMutability": "view",
      "type": "function"
    },
    {
      "constant": true,
      "inputs": [],
      "name": "totalSupply",
      "outputs": [
        {
          "internalType": "uint256",
          "name": "",
          "type": "uint256"
        }
      ],
      "payable": false,
      "stateMutability": "view",
      "type": "function"
    },
    {
      "constant": false,
      "inputs": [
        {
          "internalType": "uint256",
          "name": "newTokensAmount",
          "type": "uint256"
        }
      ],
      "name": "increaseTotalSupply",
      "outputs": [],
      "payable": false,
      "stateMutability": "nonpayable",
      "type": "function"
    },
    {
      "constant": true,
      "inputs": [
        {
          "internalType": "address",
          "name": "tokenOwner",
          "type": "address"
        }
      ],
      "name": "balanceOf",
      "outputs": [
        {
          "internalType": "uint256",
          "name": "",
          "type": "uint256"
        }
      ],
      "payable": false,
      "stateMutability": "view",
      "type": "function"
    },
    {
      "constant": true,
      "inputs": [
        {
          "internalType": "address",
          "name": "owner",
          "type": "address"
        },
        {
          "internalType": "address",
          "name": "delegate",
          "type": "address"
        }
      ],
      "name": "allowance",
      "outputs": [
        {
          "internalType": "uint256",
          "name": "",
          "type": "uint256"
        }
      ],
      "payable": false,
      "stateMutability": "view",
      "type": "function"
    },
    {
      "constant": false,
      "inputs": [
        {
          "internalType": "address",
          "name": "recipient",
          "type": "address"
        },
        {
          "internalType": "uint256",
          "name": "numTokens",
          "type": "uint256"
        }
      ],
      "name": "transfer",
      "outputs": [
        {
          "internalType": "bool",
          "name": "",
          "type": "bool"
        }
      ],
      "payable": false,
      "stateMutability": "nonpayable",
      "type": "function"
    },
    {
      "constant": false,
      "inputs": [
        {
          "internalType": "address",
          "name": "delegate",
          "type": "address"
        },
        {
          "internalType": "uint256",
          "name": "numTokens",
          "type": "uint256"
        }
      ],
      "name": "approve",
      "outputs": [
        {
          "internalType": "bool",
          "name": "",
          "type": "bool"
        }
      ],
      "payable": false,
      "stateMutability": "nonpayable",
      "type": "function"
    },
    {
      "constant": false,
      "inputs": [
        {
          "internalType": "address",
          "name": "owner",
          "type": "address"
        },
        {
          "internalType": "address",
          "name": "buyer",
          "type": "address"
        },
        {
          "internalType": "uint256",
          "name": "numTokens",
          "type": "uint256"
        }
      ],
      "name": "transferFrom",
      "outputs": [
        {
          "internalType": "bool",
          "name": "",
          "type": "bool"
        }
      ],
      "payable": false,
      "stateMutability": "nonpayable",
      "type": "function"
    }
  ],
  "bytecode": "0x608060405234801561001057600080fd5b50604051610f32380380610f32833981810160405261003291908101906100da565b80600381905550600354600160003373ffffffffffffffffffffffffffffffffffffffff1673ffffffffffffffffffffffffffffffffffffffff16815260200190815260200160002081905550336000806101000a81548173ffffffffffffffffffffffffffffffffffffffff021916908373ffffffffffffffffffffffffffffffffffffffff16021790555050610124565b6000815190506100d48161010d565b92915050565b6000602082840312156100ec57600080fd5b60006100fa848285016100c5565b91505092915050565b6000819050919050565b61011681610103565b811461012157600080fd5b50565b610dff806101336000396000f3fe608060405234801561001057600080fd5b506004361061009e5760003560e01c8063313ce56711610066578063313ce5671461015b57806370a082311461017957806395d89b41146101a9578063a9059cbb146101c7578063dd62ed3e146101f75761009e565b806306fdde03146100a3578063095ea7b3146100c157806318160ddd146100f15780631d43cc981461010f57806323b872dd1461012b575b600080fd5b6100ab610227565b6040516100b89190610c81565b60405180910390f35b6100db60048036036100d69190810190610b9b565b610260565b6040516100e89190610c66565b60405180910390f35b6100f9610352565b6040516101069190610ca3565b60405180910390f35b61012960048036036101249190810190610bd7565b61035c565b005b61014560048036036101409190810190610b4c565b610415565b6040516101529190610c66565b60405180910390f35b610163610795565b6040516101709190610cbe565b60405180910390f35b610193600480360361018e9190810190610ae7565b61079a565b6040516101a09190610ca3565b60405180910390f35b6101b16107e3565b6040516101be9190610c81565b60405180910390f35b6101e160048036036101dc9190810190610b9b565b61081c565b6040516101ee9190610c66565b60405180910390f35b610211600480360361020c9190810190610b10565b610a03565b60405161021e9190610ca3565b60405180910390f35b6040518060400160405280600581526020017f455243323000000000000000000000000000000000000000000000000000000081525081565b600081600260003373ffffffffffffffffffffffffffffffffffffffff1673ffffffffffffffffffffffffffffffffffffffff16815260200190815260200160002060008573ffffffffffffffffffffffffffffffffffffffff1673ffffffffffffffffffffffffffffffffffffffff168152602001908152602001600020819055508273ffffffffffffffffffffffffffffffffffffffff163373ffffffffffffffffffffffffffffffffffffffff167f8c5be1e5ebec7d5bd14f71427d1e84f3dd0314c0f7b2291e5b200ac8c7c3b925846040516103409190610ca3565b60405180910390a36001905092915050565b6000600354905090565b6000809054906101000a900473ffffffffffffffffffffffffffffffffffffffff1673ffffffffffffffffffffffffffffffffffffffff163373ffffffffffffffffffffffffffffffffffffffff16146103b557600080fd5b8060036000828254019250508190555080600160003373ffffffffffffffffffffffffffffffffffffffff1673ffffffffffffffffffffffffffffffffffffffff1681526020019081526020016000206000828254019250508190555050565b6000600160008573ffffffffffffffffffffffffffffffffffffffff1673ffffffffffffffffffffffffffffffffffffffff1681526020019081526020016000205482111561046357600080fd5b600260008573ffffffffffffffffffffffffffffffffffffffff1673ffffffffffffffffffffffffffffffffffffffff16815260200190815260200160002060003373ffffffffffffffffffffffffffffffffffffffff1673ffffffffffffffffffffffffffffffffffffffff168152602001908152602001600020548211156104ec57600080fd5b61053e82600160008773ffffffffffffffffffffffffffffffffffffffff1673ffffffffffffffffffffffffffffffffffffffff16815260200190815260200160002054610a8a90919063ffffffff16565b600160008673ffffffffffffffffffffffffffffffffffffffff1673ffffffffffffffffffffffffffffffffffffffff1681526020019081526020016000208190555061061082600260008773ffffffffffffffffffffffffffffffffffffffff1673ffffffffffffffffffffffffffffffffffffffff16815260200190815260200160002060003373ffffffffffffffffffffffffffffffffffffffff1673ffffffffffffffffffffffffffffffffffffffff16815260200190815260200160002054610a8a90919063ffffffff16565b600260008673ffffffffffffffffffffffffffffffffffffffff1673ffffffffffffffffffffffffffffffffffffffff16815260200190815260200160002060003373ffffffffffffffffffffffffffffffffffffffff1673ffffffffffffffffffffffffffffffffffffffff168152602001908152602001600020819055506106e282600160008673ffffffffffffffffffffffffffffffffffffffff1673ffffffffffffffffffffffffffffffffffffffff16815260200190815260200160002054610aa190919063ffffffff16565b600160008573ffffffffffffffffffffffffffffffffffffffff1673ffffffffffffffffffffffffffffffffffffffff168152602001908152602001600020819055508273ffffffffffffffffffffffffffffffffffffffff168473ffffffffffffffffffffffffffffffffffffffff167fddf252ad1be2c89b69c2b068fc378daa952ba7f163c4a11628f55a4df523b3ef846040516107829190610ca3565b60405180910390a3600190509392505050565b600281565b6000600160008373ffffffffffffffffffffffffffffffffffffffff1673ffffffffffffffffffffffffffffffffffffffff168152602001908152602001600020549050919050565b6040518060400160405280600381526020017f455243000000000000000000000000000000000000000000000000000000000081525081565b6000600160003373ffffffffffffffffffffffffffffffffffffffff1673ffffffffffffffffffffffffffffffffffffffff1681526020019081526020016000205482111561086a57600080fd5b6108bc82600160003373ffffffffffffffffffffffffffffffffffffffff1673ffffffffffffffffffffffffffffffffffffffff16815260200190815260200160002054610a8a90919063ffffffff16565b600160003373ffffffffffffffffffffffffffffffffffffffff1673ffffffffffffffffffffffffffffffffffffffff1681526020019081526020016000208190555061095182600160008673ffffffffffffffffffffffffffffffffffffffff1673ffffffffffffffffffffffffffffffffffffffff16815260200190815260200160002054610aa190919063ffffffff16565b600160008573ffffffffffffffffffffffffffffffffffffffff1673ffffffffffffffffffffffffffffffffffffffff168152602001908152602001600020819055508273ffffffffffffffffffffffffffffffffffffffff163373ffffffffffffffffffffffffffffffffffffffff167fddf252ad1be2c89b69c2b068fc378daa952ba7f163c4a11628f55a4df523b3ef846040516109f19190610ca3565b60405180910390a36001905092915050565b6000600260008473ffffffffffffffffffffffffffffffffffffffff1673ffffffffffffffffffffffffffffffffffffffff16815260200190815260200160002060008373ffffffffffffffffffffffffffffffffffffffff1673ffffffffffffffffffffffffffffffffffffffff16815260200190815260200160002054905092915050565b600082821115610a9657fe5b818303905092915050565b600080828401905083811015610ab357fe5b8091505092915050565b600081359050610acc81610d8e565b92915050565b600081359050610ae181610da5565b92915050565b600060208284031215610af957600080fd5b6000610b0784828501610abd565b91505092915050565b60008060408385031215610b2357600080fd5b6000610b3185828601610abd565b9250506020610b4285828601610abd565b9150509250929050565b600080600060608486031215610b6157600080fd5b6000610b6f86828701610abd565b9350506020610b8086828701610abd565b9250506040610b9186828701610ad2565b9150509250925092565b60008060408385031215610bae57600080fd5b6000610bbc85828601610abd565b9250506020610bcd85828601610ad2565b9150509250929050565b600060208284031215610be957600080fd5b6000610bf784828501610ad2565b91505092915050565b610c0981610d07565b82525050565b6000610c1a82610cd9565b610c248185610ce4565b9350610c34818560208601610d4a565b610c3d81610d7d565b840191505092915050565b610c5181610d33565b82525050565b610c6081610d3d565b82525050565b6000602082019050610c7b6000830184610c00565b92915050565b60006020820190508181036000830152610c9b8184610c0f565b905092915050565b6000602082019050610cb86000830184610c48565b92915050565b6000602082019050610cd36000830184610c57565b92915050565b600081519050919050565b600082825260208201905092915050565b6000610d0082610d13565b9050919050565b60008115159050919050565b600073ffffffffffffffffffffffffffffffffffffffff82169050919050565b6000819050919050565b600060ff82169050919050565b60005b83811015610d68578082015181840152602081019050610d4d565b83811115610d77576000848401525b50505050565b6000601f19601f8301169050919050565b610d9781610cf5565b8114610da257600080fd5b50565b610dae81610d33565b8114610db957600080fd5b5056fea365627a7a723158204e423eda08ace621e9cf06f368ffd5249072d1d462025e54eb33151e254f996e6c6578706572696d656e74616cf564736f6c63430005110040",
  "source": "// SPDX-License-Identifier: MIT\r\npragma solidity >=0.4.21 <0.6.0;\r\npragma experimental ABIEncoderV2;\r\nimport \"./SafeMath.sol\";\r\n\r\n/// @title <ERC20.sol>\r\n/// @author <IvanFitro>\r\n/// @notice <Creation of an ERC20 token>\r\n\r\ninterface IREC20 {\r\n    //Returns the quantity of tokens existency\r\n    function totalSupply() external view returns(uint256);\r\n\r\n    //Returns the quantity of tokens of an specific address\r\n    function balanceOf(address _account) external view returns(uint256);\r\n\r\n    //Returns the quantity of tokens that the spender can spend in the name of the owner\r\n    function allowance(address _owner, address _spender) external view returns(uint256);\r\n\r\n    //Returns a bool result of the indicated operation\r\n    function transfer(address _recipient, uint256 _amount) external returns(bool);\r\n\r\n    //Returns a bool with the result of the spend transaction\r\n    function approve(address _spender, uint256 _amount) external returns(bool);\r\n\r\n    //Returns a bool with the result of the operation of transfer tokens with the allowance() method\r\n    function transferFrom(address _sender, address _recipient, uint256 _amount) external returns(bool);\r\n\r\n    //Event when a quantity of tokens is transfered to an origien to a destiny\r\n    event Transfer(address indexed from, address indexed to, uint256 tokens);\r\n\r\n    //Event when a quantity of tokens is transfered to an origion to a destiny using the allowance() method\r\n    event Approval(address indexed owner, address indexed spender, uint256 tokens);\r\n\r\n}\r\n\r\ncontract ERC20Basic is IREC20 {\r\n\r\n    string public constant name = \"ERC20\";\r\n    string public constant symbol = \"ERC\";\r\n    uint8 public constant decimals = 2;\r\n    address Owner;\r\n\r\n    using SafeMath for uint256;\r\n\r\n    mapping (address => uint) balances;\r\n    mapping (address => mapping (address => uint)) allowed; //allows another address to spend tokens on my behalf\r\n    uint256 totalSupply_;\r\n\r\n    constructor (uint256 initialSupply) public {\r\n        totalSupply_ = initialSupply;\r\n        balances[msg.sender] = totalSupply_;\r\n        Owner = msg.sender;\r\n    }\r\n\r\n    modifier onlyOwner {\r\n        require(msg.sender == Owner);\r\n        _;\r\n    }\r\n\r\n    function totalSupply() public view returns(uint256) {\r\n        return totalSupply_;\r\n    }\r\n\r\n    function increaseTotalSupply(uint newTokensAmount) public onlyOwner {\r\n        totalSupply_ +=newTokensAmount;\r\n        balances[msg.sender] +=newTokensAmount;\r\n    } \r\n\r\n    function balanceOf(address tokenOwner) public view returns(uint256) {\r\n        return balances[tokenOwner];\r\n    }\r\n\r\n    function allowance(address owner, address delegate) public view returns(uint256) {\r\n        return allowed[owner][delegate];\r\n    }\r\n\r\n    function transfer(address recipient, uint256 numTokens) public returns(bool) {\r\n        require(numTokens <= balances[msg.sender]);\r\n\r\n        balances[msg.sender] = balances[msg.sender].sub(numTokens);\r\n        balances[recipient] = balances[recipient].add(numTokens);\r\n        emit Transfer(msg.sender, recipient, numTokens);\r\n        return true;\r\n    }\r\n\r\n    function approve(address delegate, uint256 numTokens) public returns(bool) {\r\n        allowed[msg.sender][delegate] = numTokens;\r\n        emit Approval(msg.sender, delegate, numTokens);\r\n        return true;\r\n    }\r\n\r\n    function transferFrom(address owner, address buyer, uint256 numTokens) public returns(bool) {\r\n        require(numTokens <= balances[owner]);\r\n        require(numTokens <= allowed[owner][msg.sender]);\r\n\r\n        balances[owner] = balances[owner].sub(numTokens);\r\n        allowed[owner][msg.sender] = allowed[owner][msg.sender].sub(numTokens);\r\n        balances[buyer] = balances[buyer].add(numTokens);\r\n        emit Transfer(owner, buyer, numTokens);\r\n        return true;\r\n    }\r\n\r\n}",
  "sourcePath": "C:\\Users\\Ivan\\Desktop\\ERC20\\src\\contracts\\ERC20.sol",
  "compiler": {
    "name": "solc",
    "version": "0.5.17+commit.d19bba13.Emscripten.clang"
  },
  "schemaVersion": "3.4.7",
  "updatedAt": "2022-08-12T13:45:34.050Z",
  "devdoc": {
    "methods": {}
  },
  "userdoc": {
    "methods": {}
  }
}