{
  "contractName": "main",
  "abi": [
    {
      "inputs": [],
      "payable": false,
      "stateMutability": "nonpayable",
      "type": "constructor"
    },
    {
      "constant": true,
      "inputs": [],
      "name": "getOwner",
      "outputs": [
        {
          "internalType": "address",
          "name": "",
          "type": "address"
        }
      ],
      "payable": false,
      "stateMutability": "view",
      "type": "function"
    },
    {
      "constant": true,
      "inputs": [],
      "name": "getContract",
      "outputs": [
        {
          "internalType": "address",
          "name": "",
          "type": "address"
        }
      ],
      "payable": false,
      "stateMutability": "view",
      "type": "function"
    },
    {
      "constant": false,
      "inputs": [
        {
          "internalType": "address",
          "name": "_reciever",
          "type": "address"
        },
        {
          "internalType": "uint256",
          "name": "_numTokens",
          "type": "uint256"
        }
      ],
      "name": "send_tokens",
      "outputs": [],
      "payable": true,
      "stateMutability": "payable",
      "type": "function"
    },
    {
      "constant": true,
      "inputs": [
        {
          "internalType": "address",
          "name": "_address",
          "type": "address"
        }
      ],
      "name": "address_balance",
      "outputs": [
        {
          "internalType": "uint256",
          "name": "",
          "type": "uint256"
        }
      ],
      "payable": false,
      "stateMutability": "view",
      "type": "function"
    },
    {
      "constant": true,
      "inputs": [],
      "name": "contract_balance",
      "outputs": [
        {
          "internalType": "uint256",
          "name": "",
          "type": "uint256"
        }
      ],
      "payable": false,
      "stateMutability": "view",
      "type": "function"
    },
    {
      "constant": false,
      "inputs": [
        {
          "internalType": "uint256",
          "name": "_numTokens",
          "type": "uint256"
        }
      ],
      "name": "tokenGeneration",
      "outputs": [],
      "payable": false,
      "stateMutability": "nonpayable",
      "type": "function"
    }
  ],
  "bytecode": "0x608060405234801561001057600080fd5b506127106040516100209061010d565b61002a9190610129565b604051809103906000f080158015610046573d6000803e3d6000fd5b506000806101000a81548173ffffffffffffffffffffffffffffffffffffffff021916908373ffffffffffffffffffffffffffffffffffffffff16021790555033600160006101000a81548173ffffffffffffffffffffffffffffffffffffffff021916908373ffffffffffffffffffffffffffffffffffffffff16021790555030600260006101000a81548173ffffffffffffffffffffffffffffffffffffffff021916908373ffffffffffffffffffffffffffffffffffffffff160217905550610160565b610f3280610b2e83390190565b6101238161014e565b82525050565b600060208201905061013e600083018461011a565b92915050565b6000819050919050565b600061015982610144565b9050919050565b6109bf8061016f6000396000f3fe6080604052600436106100555760003560e01c8063057440d31461005a578063797828c514610085578063893d20e8146100ae578063958f85bd146100d9578063a787254714610104578063e76be67a14610120575b600080fd5b34801561006657600080fd5b5061006f61015d565b60405161007c91906108c3565b60405180910390f35b34801561009157600080fd5b506100ac60048036036100a791908101906106ef565b610230565b005b3480156100ba57600080fd5b506100c361034f565b6040516100d0919061081f565b60405180910390f35b3480156100e557600080fd5b506100ee610379565b6040516100fb919061081f565b60405180910390f35b61011e6004803603610119919081019061068a565b6103a3565b005b34801561012c57600080fd5b5061014760048036036101429190810190610661565b610546565b60405161015491906108c3565b60405180910390f35b60008060009054906101000a900473ffffffffffffffffffffffffffffffffffffffff1673ffffffffffffffffffffffffffffffffffffffff166370a08231600260009054906101000a900473ffffffffffffffffffffffffffffffffffffffff166040518263ffffffff1660e01b81526004016101db919061081f565b60206040518083038186803b1580156101f357600080fd5b505afa158015610207573d6000803e3d6000fd5b505050506040513d601f19601f8201168201806040525061022b9190810190610718565b905090565b600160009054906101000a900473ffffffffffffffffffffffffffffffffffffffff1673ffffffffffffffffffffffffffffffffffffffff163373ffffffffffffffffffffffffffffffffffffffff16146102c0576040517f08c379a00000000000000000000000000000000000000000000000000000000081526004016102b7906108a3565b60405180910390fd5b6000809054906101000a900473ffffffffffffffffffffffffffffffffffffffff1673ffffffffffffffffffffffffffffffffffffffff16631d43cc98826040518263ffffffff1660e01b815260040161031a91906108c3565b600060405180830381600087803b15801561033457600080fd5b505af1158015610348573d6000803e3d6000fd5b5050505050565b6000600160009054906101000a900473ffffffffffffffffffffffffffffffffffffffff16905090565b6000600260009054906101000a900473ffffffffffffffffffffffffffffffffffffffff16905090565b60006103ae826105f9565b9050803410156103f3576040517f08c379a00000000000000000000000000000000000000000000000000000000081526004016103ea90610863565b60405180910390fd5b600081340390503373ffffffffffffffffffffffffffffffffffffffff166108fc829081150290604051600060405180830381858888f19350505050158015610440573d6000803e3d6000fd5b50600061044b61015d565b905080841115610490576040517f08c379a000000000000000000000000000000000000000000000000000000000815260040161048790610883565b60405180910390fd5b6000809054906101000a900473ffffffffffffffffffffffffffffffffffffffff1673ffffffffffffffffffffffffffffffffffffffff1663a9059cbb86866040518363ffffffff1660e01b81526004016104ec92919061083a565b602060405180830381600087803b15801561050657600080fd5b505af115801561051a573d6000803e3d6000fd5b505050506040513d601f19601f8201168201806040525061053e91908101906106c6565b505050505050565b60008060009054906101000a900473ffffffffffffffffffffffffffffffffffffffff1673ffffffffffffffffffffffffffffffffffffffff166370a08231836040518263ffffffff1660e01b81526004016105a2919061081f565b60206040518083038186803b1580156105ba57600080fd5b505afa1580156105ce573d6000803e3d6000fd5b505050506040513d601f19601f820116820180604052506105f29190810190610718565b9050919050565b6000670de0b6b3a764000082029050919050565b60008135905061061c81610937565b92915050565b6000815190506106318161094e565b92915050565b60008135905061064681610965565b92915050565b60008151905061065b81610965565b92915050565b60006020828403121561067357600080fd5b60006106818482850161060d565b91505092915050565b6000806040838503121561069d57600080fd5b60006106ab8582860161060d565b92505060206106bc85828601610637565b9150509250929050565b6000602082840312156106d857600080fd5b60006106e684828501610622565b91505092915050565b60006020828403121561070157600080fd5b600061070f84828501610637565b91505092915050565b60006020828403121561072a57600080fd5b60006107388482850161064c565b91505092915050565b61074a816108ef565b82525050565b600061075d601c836108de565b91507f596f7520646f6e2774206861766520656e6f75676820666f756e6473000000006000830152602082019050919050565b600061079d600f836108de565b91507f427579206c65737320746f6b656e7300000000000000000000000000000000006000830152602082019050919050565b60006107dd601a836108de565b91507f596f7520646f6e27742068617665207065726d697373696f6e730000000000006000830152602082019050919050565b6108198161092d565b82525050565b60006020820190506108346000830184610741565b92915050565b600060408201905061084f6000830185610741565b61085c6020830184610810565b9392505050565b6000602082019050818103600083015261087c81610750565b9050919050565b6000602082019050818103600083015261089c81610790565b9050919050565b600060208201905081810360008301526108bc816107d0565b9050919050565b60006020820190506108d86000830184610810565b92915050565b600082825260208201905092915050565b60006108fa8261090d565b9050919050565b60008115159050919050565b600073ffffffffffffffffffffffffffffffffffffffff82169050919050565b6000819050919050565b610940816108ef565b811461094b57600080fd5b50565b61095781610901565b811461096257600080fd5b50565b61096e8161092d565b811461097957600080fd5b5056fea365627a7a7231582005c0b942bd9e5ade1e65dbc5e27269045d5d0b02e0555d4dc305aa5da75a45ec6c6578706572696d656e74616cf564736f6c63430005110040608060405234801561001057600080fd5b50604051610f32380380610f32833981810160405261003291908101906100da565b80600381905550600354600160003373ffffffffffffffffffffffffffffffffffffffff1673ffffffffffffffffffffffffffffffffffffffff16815260200190815260200160002081905550336000806101000a81548173ffffffffffffffffffffffffffffffffffffffff021916908373ffffffffffffffffffffffffffffffffffffffff16021790555050610124565b6000815190506100d48161010d565b92915050565b6000602082840312156100ec57600080fd5b60006100fa848285016100c5565b91505092915050565b6000819050919050565b61011681610103565b811461012157600080fd5b50565b610dff806101336000396000f3fe608060405234801561001057600080fd5b506004361061009e5760003560e01c8063313ce56711610066578063313ce5671461015b57806370a082311461017957806395d89b41146101a9578063a9059cbb146101c7578063dd62ed3e146101f75761009e565b806306fdde03146100a3578063095ea7b3146100c157806318160ddd146100f15780631d43cc981461010f57806323b872dd1461012b575b600080fd5b6100ab610227565b6040516100b89190610c81565b60405180910390f35b6100db60048036036100d69190810190610b9b565b610260565b6040516100e89190610c66565b60405180910390f35b6100f9610352565b6040516101069190610ca3565b60405180910390f35b61012960048036036101249190810190610bd7565b61035c565b005b61014560048036036101409190810190610b4c565b610415565b6040516101529190610c66565b60405180910390f35b610163610795565b6040516101709190610cbe565b60405180910390f35b610193600480360361018e9190810190610ae7565b61079a565b6040516101a09190610ca3565b60405180910390f35b6101b16107e3565b6040516101be9190610c81565b60405180910390f35b6101e160048036036101dc9190810190610b9b565b61081c565b6040516101ee9190610c66565b60405180910390f35b610211600480360361020c9190810190610b10565b610a03565b60405161021e9190610ca3565b60405180910390f35b6040518060400160405280600581526020017f455243323000000000000000000000000000000000000000000000000000000081525081565b600081600260003373ffffffffffffffffffffffffffffffffffffffff1673ffffffffffffffffffffffffffffffffffffffff16815260200190815260200160002060008573ffffffffffffffffffffffffffffffffffffffff1673ffffffffffffffffffffffffffffffffffffffff168152602001908152602001600020819055508273ffffffffffffffffffffffffffffffffffffffff163373ffffffffffffffffffffffffffffffffffffffff167f8c5be1e5ebec7d5bd14f71427d1e84f3dd0314c0f7b2291e5b200ac8c7c3b925846040516103409190610ca3565b60405180910390a36001905092915050565b6000600354905090565b6000809054906101000a900473ffffffffffffffffffffffffffffffffffffffff1673ffffffffffffffffffffffffffffffffffffffff163373ffffffffffffffffffffffffffffffffffffffff16146103b557600080fd5b8060036000828254019250508190555080600160003373ffffffffffffffffffffffffffffffffffffffff1673ffffffffffffffffffffffffffffffffffffffff1681526020019081526020016000206000828254019250508190555050565b6000600160008573ffffffffffffffffffffffffffffffffffffffff1673ffffffffffffffffffffffffffffffffffffffff1681526020019081526020016000205482111561046357600080fd5b600260008573ffffffffffffffffffffffffffffffffffffffff1673ffffffffffffffffffffffffffffffffffffffff16815260200190815260200160002060003373ffffffffffffffffffffffffffffffffffffffff1673ffffffffffffffffffffffffffffffffffffffff168152602001908152602001600020548211156104ec57600080fd5b61053e82600160008773ffffffffffffffffffffffffffffffffffffffff1673ffffffffffffffffffffffffffffffffffffffff16815260200190815260200160002054610a8a90919063ffffffff16565b600160008673ffffffffffffffffffffffffffffffffffffffff1673ffffffffffffffffffffffffffffffffffffffff1681526020019081526020016000208190555061061082600260008773ffffffffffffffffffffffffffffffffffffffff1673ffffffffffffffffffffffffffffffffffffffff16815260200190815260200160002060003373ffffffffffffffffffffffffffffffffffffffff1673ffffffffffffffffffffffffffffffffffffffff16815260200190815260200160002054610a8a90919063ffffffff16565b600260008673ffffffffffffffffffffffffffffffffffffffff1673ffffffffffffffffffffffffffffffffffffffff16815260200190815260200160002060003373ffffffffffffffffffffffffffffffffffffffff1673ffffffffffffffffffffffffffffffffffffffff168152602001908152602001600020819055506106e282600160008673ffffffffffffffffffffffffffffffffffffffff1673ffffffffffffffffffffffffffffffffffffffff16815260200190815260200160002054610aa190919063ffffffff16565b600160008573ffffffffffffffffffffffffffffffffffffffff1673ffffffffffffffffffffffffffffffffffffffff168152602001908152602001600020819055508273ffffffffffffffffffffffffffffffffffffffff168473ffffffffffffffffffffffffffffffffffffffff167fddf252ad1be2c89b69c2b068fc378daa952ba7f163c4a11628f55a4df523b3ef846040516107829190610ca3565b60405180910390a3600190509392505050565b600281565b6000600160008373ffffffffffffffffffffffffffffffffffffffff1673ffffffffffffffffffffffffffffffffffffffff168152602001908152602001600020549050919050565b6040518060400160405280600381526020017f455243000000000000000000000000000000000000000000000000000000000081525081565b6000600160003373ffffffffffffffffffffffffffffffffffffffff1673ffffffffffffffffffffffffffffffffffffffff1681526020019081526020016000205482111561086a57600080fd5b6108bc82600160003373ffffffffffffffffffffffffffffffffffffffff1673ffffffffffffffffffffffffffffffffffffffff16815260200190815260200160002054610a8a90919063ffffffff16565b600160003373ffffffffffffffffffffffffffffffffffffffff1673ffffffffffffffffffffffffffffffffffffffff1681526020019081526020016000208190555061095182600160008673ffffffffffffffffffffffffffffffffffffffff1673ffffffffffffffffffffffffffffffffffffffff16815260200190815260200160002054610aa190919063ffffffff16565b600160008573ffffffffffffffffffffffffffffffffffffffff1673ffffffffffffffffffffffffffffffffffffffff168152602001908152602001600020819055508273ffffffffffffffffffffffffffffffffffffffff163373ffffffffffffffffffffffffffffffffffffffff167fddf252ad1be2c89b69c2b068fc378daa952ba7f163c4a11628f55a4df523b3ef846040516109f19190610ca3565b60405180910390a36001905092915050565b6000600260008473ffffffffffffffffffffffffffffffffffffffff1673ffffffffffffffffffffffffffffffffffffffff16815260200190815260200160002060008373ffffffffffffffffffffffffffffffffffffffff1673ffffffffffffffffffffffffffffffffffffffff16815260200190815260200160002054905092915050565b600082821115610a9657fe5b818303905092915050565b600080828401905083811015610ab357fe5b8091505092915050565b600081359050610acc81610d8e565b92915050565b600081359050610ae181610da5565b92915050565b600060208284031215610af957600080fd5b6000610b0784828501610abd565b91505092915050565b60008060408385031215610b2357600080fd5b6000610b3185828601610abd565b9250506020610b4285828601610abd565b9150509250929050565b600080600060608486031215610b6157600080fd5b6000610b6f86828701610abd565b9350506020610b8086828701610abd565b9250506040610b9186828701610ad2565b9150509250925092565b60008060408385031215610bae57600080fd5b6000610bbc85828601610abd565b9250506020610bcd85828601610ad2565b9150509250929050565b600060208284031215610be957600080fd5b6000610bf784828501610ad2565b91505092915050565b610c0981610d07565b82525050565b6000610c1a82610cd9565b610c248185610ce4565b9350610c34818560208601610d4a565b610c3d81610d7d565b840191505092915050565b610c5181610d33565b82525050565b610c6081610d3d565b82525050565b6000602082019050610c7b6000830184610c00565b92915050565b60006020820190508181036000830152610c9b8184610c0f565b905092915050565b6000602082019050610cb86000830184610c48565b92915050565b6000602082019050610cd36000830184610c57565b92915050565b600081519050919050565b600082825260208201905092915050565b6000610d0082610d13565b9050919050565b60008115159050919050565b600073ffffffffffffffffffffffffffffffffffffffff82169050919050565b6000819050919050565b600060ff82169050919050565b60005b83811015610d68578082015181840152602081019050610d4d565b83811115610d77576000848401525b50505050565b6000601f19601f8301169050919050565b610d9781610cf5565b8114610da257600080fd5b50565b610dae81610d33565b8114610db957600080fd5b5056fea365627a7a723158204e423eda08ace621e9cf06f368ffd5249072d1d462025e54eb33151e254f996e6c6578706572696d656e74616cf564736f6c63430005110040",
  "source": "// SPDX-License-Identifier: MIT\r\npragma solidity >=0.4.21 <0.6.0;\r\npragma experimental ABIEncoderV2;\r\nimport \"./ERC20.sol\";\r\n\r\ncontract main {\r\n\r\n    ERC20Basic private token;\r\n\r\n    address owner;\r\n\r\n    address Contract;\r\n\r\n    constructor() public {\r\n        token = new ERC20Basic(10000);\r\n        owner = msg.sender;\r\n        Contract = address(this);\r\n    }\r\n\r\n    modifier onlyOwner() {\r\n        require(msg.sender == owner, \"You don't have permissions\");\r\n        _;\r\n    }\r\n\r\n    function tokenPrice(uint _numTokens) internal pure returns(uint) {\r\n        //1token/1ether\r\n        return _numTokens*(1 ether);\r\n    }\r\n\r\n    function getOwner() public view returns(address) {\r\n        return owner;\r\n    }\r\n\r\n    function getContract() public view returns(address) {\r\n        return Contract;\r\n    }\r\n\r\n    function send_tokens(address _reciever, uint _numTokens) public payable {\r\n        uint cost = tokenPrice(_numTokens);\r\n        require(msg.value >= cost, \"You don't have enough founds\");\r\n        uint returnValue = msg.value - cost;\r\n        msg.sender.transfer(returnValue);\r\n        uint Balance = contract_balance();\r\n        require(_numTokens <= Balance, \"Buy less tokens\");\r\n        token.transfer(_reciever, _numTokens);\r\n    }\r\n\r\n    function address_balance(address _address) public view returns(uint) {\r\n        return token.balanceOf(_address);\r\n    }\r\n\r\n    function contract_balance() public view returns(uint) {\r\n        return token.balanceOf(Contract);\r\n    }\r\n\r\n    function tokenGeneration(uint _numTokens) public onlyOwner {\r\n        token.increaseTotalSupply(_numTokens);\r\n    }\r\n}",
  "sourcePath": "C:\\Users\\Ivan\\Desktop\\ERC20\\src\\contracts\\Main.sol",
  "compiler": {
    "name": "solc",
    "version": "0.5.17+commit.d19bba13.Emscripten.clang"
  },
  "schemaVersion": "3.4.7",
  "updatedAt": "2022-08-12T13:45:34.066Z",
  "devdoc": {
    "methods": {}
  },
  "userdoc": {
    "methods": {}
  }
}